:020000040800F2
:1000000000000220011800086118000861180008AB
:10001000611800086118000861180008000000005D
:1000200000000000000000000000000099310008FE
:10003000611800080000000015330008653300084F
:1000400061180008611800086118000861180008AC
:100050006118000861180008B91400086118000848
:10006000611800086118000861180008611800088C
:10007000611800086118000861180008611800087C
:10008000611800086118000861180008611800086C
:100090006118000861180008611800086517000859
:1000A000611800086118000861180008611800084C
:1000B00041170008051700086118000861180008BA
:1000C000611800086118000861180008611800082C
:1000D000611800086118000861180008611800081C
:1000E000611800086118000861180008611800080C
:1000F00061180008611800086118000861180008FC
:1001000061180008611800086118000861180008EB
:1001100061180008611800086118000861180008DB
:10012000611800086118000801060008950600081B
:1001300061180008611800086118000861180008BB
:1001400061180008611800086118000861180008AB
:10015000611800086118000861180008611800089B
:10016000611800086118000861180008611800088B
:10017000611800086118000861180008611800087B
:08018000611800086118000875
:1001880010B5054C237833B9044B13B10448AFF3C9
:1001980000800123237010BD4804002000000000E7
:1001A800045E000808B5064B1BB106480649AFF3C4
:1001B80000800648036813B1054B03B1984708BD92
:1001C80000000000045E00084C04002048040020E1
:1001D80000000000844641EA000313F003036DD1D8
:1001E800403A41D351F8043B40F8043B51F8043BF2
:1001F80040F8043B51F8043B40F8043B51F8043BF9
:1002080040F8043B51F8043B40F8043B51F8043BE8
:1002180040F8043B51F8043B40F8043B51F8043BD8
:1002280040F8043B51F8043B40F8043B51F8043BC8
:1002380040F8043B51F8043B40F8043B51F8043BB8
:1002480040F8043B51F8043B40F8043B51F8043BA8
:1002580040F8043B51F8043B40F8043B51F8043B98
:1002680040F8043B403ABDD2303211D351F8043B38
:1002780040F8043B51F8043B40F8043B51F8043B78
:1002880040F8043B51F8043B40F8043B103AEDD2E7
:100298000C3205D351F8043B40F8043B043AF9D238
:1002A800043208D0D2071CBF11F8013B00F8013B0B
:1002B80001D30B8803806046704700BF082A13D318
:1002C8008B078DD010F003038AD0C3F10403D21A30
:1002D800DB071CBF11F8013B00F8013B80D331F864
:1002E800023B20F8023B7BE7043AD9D3013A11F8E4
:1002F800013B00F8013BF9D20B7803704B7843704F
:100308008B7883706046704780B59AB000AF012043
:10031800012104F06BFF80233B66022387F86430D9
:10032800002387F86630032387F86530022387F8AF
:10033800673007F16003A948194604F019FD202326
:100348003B66022387F86430002387F8663003236E
:1003580087F86530022387F8673007F160039F4804
:10036800194604F005FD40233B66022387F86430F4
:10037800012387F86630032387F86530002387F860
:10038800673007F160039548194604F0F1FC93487B
:100398000521052204F002FE90480621052204F0FA
:1003A800FDFD8E480721052204F0F8FD10233B6669
:1003B800012387F86430002387F86630032387F821
:1003C8006530012387F8673007F1600383481946D1
:1003D80004F0CEFC814B814A128B92B242F010029B
:1003E80092B21A8308233B66012387F864300023FE
:1003F80087F86630032387F86530012387F867306C
:1004080007F160037548194604F0B2FC734B734A50
:10041800128B92B242F0080292B21A834FF48050C3
:10042800012104F01BFF0023A7F84C304FF482731E
:10043800A7F84E300023A7F850300023A7F8523011
:100448000023A7F854304FF44073A7F85630082318
:10045800A7F858300023A7F85A3007F14C03604832
:10046800194604F033FF5E48012105F021F84FF4E6
:100478008000012104F0BAFE5A4803F075FB5A487F
:1004880003F072FB00BF574803F07EFF0346002BC2
:10049800F9D100BF544803F077FF0346002BF9D188
:1004A80007F11003184603F039FE00233B634FF4AD
:1004B8008063BB6200237B634C4B7B610023BB647E
:1004C8000023FB6200237B624FF40033BB634FF0D1
:1004D800C0633B614023FB61454BBB614FF4FA634A
:1004E8003B6207F110033F48194603F053FC4FF0F5
:1004F800C0633B610023FB613E4BBB614FF4FA6371
:100508003B6207F110033848194603F043FC3548AD
:100518001021012203F0B6FF33481021012203F015
:10052800B1FF2F48022105F0C1F82D48012105F03F
:10053800BDF83B233B7301237B730023BB7301236B
:10054800FB7307F10C03184603F094FA3A233B7344
:1005580001237B730023BB730123FB7307F10C0397
:10056800184603F087FA1E480221012204F0E2FF30
:100578001B480121012204F0DDFF01233B66002313
:1005880087F86430002387F86630032387F86530DE
:1005980007F160031148194604F0EAFB0020002126
:1005A80005F0BEF801237B6000233B720C237B72AD
:1005B8000123BB723B1D184604F082FA06233B70E8
:1005C80001237B700023BB700123FB703B46184658
:1005D80003F050FA6837BD4680BD00BF00000240F6
:1005E8000030014058640240406402400C30014031
:1005F800A0390120CC31012080B500AF1B481C492F
:1006080003F0F6FF0346002B27D01848184904F0DA
:10061800ABF900BF1748802104F0EAFF0346012B1D
:10062800F8D0154B144A128B92B242F0100292B2D3
:100638001A831248002103F0A7FD0C48002103F09B
:10064800A3FD02F033FE0E4B1B6818460021002262
:10065800002302F08DF902F039FE0A4B1B68002BCB
:1006680003D0094B4FF080521A6080BD40640240AD
:100678000080201000300140000002405864024011
:10068800C03101206404002004ED00E080B500AF13
:100698001B481C4903F0ACFF0346002B27D0184821
:1006A800184904F061F900BF1748802104F0A0FF41
:1006B8000346012BF8D0154B144A128B92B242F024
:1006C800100292B21A830E48002103F05DFD104813
:1006D800002103F059FD02F0E9FD0E4B1B68184696
:1006E80000210022002302F043F902F0EFFD0A4B3B
:1006F8001B68002B03D0094B4FF080521A6080BD55
:100708005864024000800018003001400000024098
:1007180040640240C03101206404002004ED00E080
:100728002DE9F04387B000AF0B463A600246FA80E5
:10073800BB806B461E46BB88191D4B1E3B610B4692
:100748001A464FF000034FEAC30949EA52794FEAC3
:10075800C2080B461A464FF00003DD0045EA527501
:10076800D4000B460733DB08DB00ADEB030D6B460B
:100778000033FB60FB881B0A9BB2DAB2FB681A7075
:10078800FB88DAB2FB685A70BB8803F4FE431B127D
:10079800DBB263F07F03DBB2DAB2FB689A70BB8826
:1007A800DAB2FB68DA7004237B610BE07B69043BF7
:1007B8003A6813441A78F9687B690B441A707B69A4
:1007C80001337B61BB881A1D7B699A42EEDCBB88CA
:1007D80004339BB21248194603F062FD104BFA68C5
:1007E800DA60104B0F4A528B92B242F0100292B26A
:1007F8005A830B48012103F0C7FC0B48012103F081
:10080800C3FC0A4B1B68184600214FF0FF32002337
:1008180002F0C8F9B5461C37BD46BDE8F08300BFF5
:10082800586402400000024040640240C031012088
:1008380080B584B000AF02460B46FA80BB80022325
:10084800FB81FB881B0A9BB2DBB23B72FB88DBB2E5
:100858007B72FB8903F4FE431B12DBB263F07F0358
:10086800DBB2DBB2BB72FB89DBB2FB72BB881B0A53
:100878009BB2DBB23B73BB88DBB27B7311480621AA
:1008880003F00EFD0F4B07F10802DA600E4B0E4A1B
:10089800528B92B242F0100292B25A830948012157
:1008A80003F072FC0948012103F06EFC084B1B6839
:1008B800184600214FF0FF32002302F073F9103779
:1008C800BD4680BD586402400000024040640240BA
:1008D800C031012080B584B000AF02460B46FA80D3
:1008E8007B710123FB81FB881B0A9BB2DBB23B7245
:1008F800FB88DBB27B72FB8903F4FE431B12DBB27D
:1009080063F07F03DBB2DBB2BB72FB89DBB2FB7245
:100918007B793B731148052103F0C2FC0F4B07F1AB
:100928000802DA600E4B0E4A528B92B242F0100265
:1009380092B25A830948012103F026FC0948012193
:1009480003F022FC084B1B68184600214FF0FF32C9
:10095800002302F027F91037BD4680BD58640240D5
:100968000000024040640240C03101202DE9F041FE
:1009780086B000AFF880B98069468846B9880E1DF0
:10098800711E3961314608464FF00001CD0045EA35
:100998005075C400314608464FF00001CB0043EAC9
:1009A8005073C20033460733DB08DB00ADEB030DA1
:1009B8006B460033FB60FB881B0A9BB2DAB2FB680C
:1009C8001A70FB88DAB2FB685A70BB8803F4FE43DE
:1009D8001B12DAB2FB689A70BB88DAB2FB68DA706D
:1009E80004237B6107E0FA687B69134400221A70CC
:1009F8007B6901337B61BB881A1D7B699A42F2DCF3
:100A0800BB8804339BB21748194603F049FCBB88DE
:100A180004339BB21448194603F042FC124BFA689F
:100A2800DA60104B114ADA60114B114A528B92B2BC
:100A380042F0100292B25A830B48012103F0A4FB42
:100A48000848012103F0A0FB0A4B1B681846002147
:100A58004FF0FF32002302F0A5F8C5461837BD460F
:100A6800BDE8F0814064024058640240CC31012066
:100A780000000240C031012080B582B000AF0020E4
:100A88008021FFF727FF8023FB7000BF0020002193
:100A9800FFF720FF1620FF21FFF71CFF362000215B
:100AA800FFF718FF1720C821FFF714FF19200321AB
:100AB800FFF710FF00237B6000237B602BE07B683F
:100AC8009BB21B029BB203F580431E339BB21846B0
:100AD8000221FFF7FFFE7B689BB21B029BB203F566
:100AE80080431F339BB218460221FFF7F3FE7B6851
:100AF8009BB21B029BB203F580432C339BB2184672
:100B0800FF21FFF7E7FE074A7B68134400221A70AB
:100B18007B6801337B607B68072BD0DD0837BD46D7
:100B280080BD00BF6804002080B582B000AF786047
:100B3800092006217A68FFF7F3FD0837BD4680BD16
:100B480080B582B000AF786009200621FFF70EFF5C
:100B5800786803490622FFF73DFB0837BD4680BD8C
:100B6800D031012080B584B000AFF860B9607A60F8
:100B78000F200421FA68FFF7D3FD05200421BA6885
:100B8800FFF7CEFD012004217A68FFF7C9FD103771
:100B9800BD4680BD80B582B000AF78600F200421CB
:100BA800FFF7E4FE786803490422FFF713FB0837D0
:100BB800BD4680BDD031012080B584B000AF03466A
:100BC800FB71FB799BB21B029BB203F58043013397
:100BD8009BB218460121FFF7C9FE044B1B78FB7333
:100BE800FB7B18461037BD4680BD00BFD0310120C1
:100BF80080B584B000AF0346FB71FB799BB21B0242
:100C08009BB203F5804303339BB218460121FFF7DB
:100C1800ADFE044B1B78FB73FB7B18461037BD46B3
:100C280080BD00BFD031012080B584B000AF03463D
:100C3800FB71FB799BB21B029BB203F58043203307
:100C48009BB218460221FFF791FE084A07F10C03F0
:100C580012881A803B7B1B029AB27B7B13439BB2A0
:100C68009BB218461037BD4680BD00BFD031012069
:100C780080B584B000AF0346FB71FB799BB21B02C1
:100C88009BB203F5804324339BB218460221FFF739
:100C98006DFE084A07F10C0312881A803B7B1B0281
:100CA8009AB27B7B13439BB29BB218461037BD4662
:100CB80080BD00BFD031012080B584B000AF0346AD
:100CC800FB71FB799BB21B029BB203F58043223375
:100CD8009BB218460221FFF749FE084A07F10C03A8
:100CE80012881A803B7B1B029AB27B7B13439BB210
:100CF8009BB218461037BD4680BD00BFD0310120D9
:100D080080B582B000AF02460B46FA71BB80FB7912
:100D18009BB21B029BB203F5804324339AB2BB8873
:100D280010461946FFF784FD0837BD4680BD00BF51
:100D380080B584B000AF0346FB71FB799BB21B0200
:100D48009BB203F5804326339BB218460221FFF776
:100D58000DFE084A07F10C0312881A803B7B1B0220
:100D68009AB27B7B13439BB29BB218461037BD46A1
:100D780080BD00BFD031012080B584B000AF0346EC
:100D8800FB71FB799BB21B029BB203F580432833AE
:100D98009BB218460221FFF7E9FD084A07F10C0348
:100DA80012881A803B7B1B029AB27B7B13439BB24F
:100DB8009BB218461037BD4680BD00BFD031012018
:100DC80080B582B000AF02460B46FA71BB80FB7952
:100DD8009BB21B029BB203F5804328339AB2BB88AF
:100DE80010461946FFF724FD0837BD4680BD00BFF1
:100DF80080B586B000AFBA600246FA730A46BA8177
:100E0800FB80BB89C3F30A03FB82FB7B9BB2DB003D
:100E18009BB21B029AB2FB8A13449BB2A3F5004310
:100E2800BB82FA8AFB881A44FB7B1B0203F58043CA
:100E380020339A422ADDFB7B9BB2DB009BB21B026C
:100E48009AB2FB8AD31A9BB2A3F500437B82BA8A73
:100E58007B8A10461946BA68FFF762FC7B8ABA6833
:100E68001344BB60FA887B8AD31A3B82FB7B9BB214
:100E7800DB009BB21B029BB2A3F500439AB23B8AEC
:100E880010461946BA68FFF74BFC06E0BA8AFB8899
:100E980010461946BA68FFF743FC1837BD4680BDAF
:100EA80080B586B000AFBA600246FA730A46BA81C6
:100EB800FB80BB89C3F30A03FB82FB7B9BB2DB008D
:100EC8009BB21B029AB2FB8A13449BB2A3F58043E0
:100ED800BB82FA8AFB881344B3F5006F2FDDFB8AC7
:100EE800C3F500637B82BA8A7B8A10461946FFF7EE
:100EF8003DFD7B8AB86819491A46FFF76BF97B8A6A
:100F0800BA681344BB60FA887B8AD31A3B82FB7B9E
:100F18009BB2DB009BB21B029BB2A3F580439AB243
:100F28003B8A10461946FFF721FD7B8ABA681A44A6
:100F38003B8A104609491A46FFF74CF90BE0BA8A72
:100F4800FB8810461946FFF711FDFB88B86803496E
:100F58001A46FFF73FF91837BD4680BDD03101204A
:100F680080B584B000AF13460246FA710A46BA80CB
:100F7800BB710023FB730CE0FB7B4C4AD35C002B5A
:100F880004D1FB7B494A0121D15405E0FB7B0133A5
:100F9800FB73FB7B072BEFD9FB7B072B01D9FF23C7
:100FA8007FE0FB7903F00F03082B01DDFF2378E0D6
:100FB800FB7903F00F03022B05D0FB795BB2002B02
:100FC80001DAFF236DE0FB7903F00F03012B06D054
:100FD800FB7903F02003002B01D0FF2361E0FB7BAA
:100FE8009BB21B029BB203F580439AB2FB79104671
:100FF8001946FFF76FFCFB7903F00F03FB71FB79D0
:10100800012B29DB022B02DD032B18D024E0BB883F
:101018001B0A9BB2DBB23B73BB88DBB27B73FB7BE7
:101028009BB21B029BB203F5804304339AB207F1CB
:101038000C03104602211A46FFF772FB0CE0FB7BFB
:101048009BB21B029BB203F5804314339AB2BB795F
:1010580010461946FFF73EFCFB7B9BB21B029BB276
:1010680003F5804301339BB218460121FFF732FC98
:1010780000BFFB7B1846FFF79FFD0346002BF8D106
:10108800FB7B1846FFF7B4FD0346132B0CBF002368
:101098000123DBB2BB73BB7B002B01D0FF2300E035
:1010A800FB7B18461037BD4680BD00BF6804002092
:1010B80080B582B000AF78607B68002B08DB7B6866
:1010C800072B05DC184A7B6813441B78012B02D0D8
:1010D8004FF0FF3323E0144A7B68134400221A7050
:1010E8007B689BB21B029BB203F5804301339BB222
:1010F80018461021FFF7EEFB00BF7B68DBB21846ED
:10110800FFF75AFD0346002BF7D100BF7B68DBB21F
:101118001846FFF76DFD0346002BF7D1002318464C
:101128000837BD4680BD00BF680400202DE9F043A4
:101138008BB000AFB9600146F973BA81FB80FB7BC5
:101148001846FFF755FD0346BB84FB7B072B04D8E5
:10115800FB7B564AD35C012B02D04FF0FF33A0E053
:10116800BB68002B02D0BB89002B02D14FF0FF33A4
:1011780097E0FB7B1846FFF73BFD0346172B01D092
:1011880000238EE004E0FB88012B01D1002388E0D6
:10119800FB7B1846FFF748FD0346FB84FB8C002BBE
:1011A800F1D0FB7B1846FFF763FD03467B84FA8C7E
:1011B800BB899A4201D9BB89FB84F97B7A8CFB8C69
:1011C80008461146BA68FFF713FE7A8CFB8C134465
:1011D8007B84FA7B7B8C10461946FFF791FDFB7BDD
:1011E8001846FFF769FD03463B84FB7B1846FFF76B
:1011F8003FFD0346FB837A8C3B8CD11A6B461E4617
:101208004B1EBB610B461A464FF000034FEAC30959
:1012180049EA52794FEAC2080B461A464FF00003D2
:10122800DD0045EA5275D4000B460733DB08DB00C6
:10123800ADEB030D6B4600337B613B8CA3F500439C
:101248009AB2798C3B8CCB1A9BB210461946FFF7A1
:101258008DFB7A69798C3B8CCB1A104614491A4657
:10126800FEF7B8FFFB7B9BB21B029BB203F58043E2
:1012780001339BB218462021FFF72CFB00BFFB7BF4
:101288001846FFF799FC0346002BF8D100BFFB7BFB
:101298001846FFF711FD03467A8C9A42F7D1FB8C6A
:1012A800B54618462C37BD46BDE8F08368040020D3
:1012B800D031012080B584B000AF39600146F971A2
:1012C800BA80BB71FB79072B04D8FB79314AD35C10
:1012D800012B02D04FF0FF3357E03B68002B02D0C0
:1012E800BB88002B02D14FF0FF334EE0FB79184644
:1012F800FFF77EFC0346172B01D0002345E004E0EE
:10130800BB79012B01D100233FE0FB791846FFF799
:101318000FFD0346FB81FB89002BF1D0FB791846B2
:10132800FFF72AFD0346BB81BA88FB899A4238BF7A
:1013380013469BB2F979BA89084611463A68FFF70D
:10134800AFFDBA89FB891344BB81FA79BB89104682
:101358001946FFF735FDFB799BB21B029BB203F5DB
:10136800804301339BB218464021FFF7B3FA00BF10
:10137800FB791846FFF720FC0346002BF8D1BA8802
:10138800FB899A4238BF13469BB218461037BD46B0
:1013980080BD00BF6804002080B584B000AF7860CD
:1013A8007B68002B08DB7B68072B05DC224A7B68FF
:1013B80013441B78012B02D04FF0FF3338E07B68D1
:1013C800DBB21846FFF714FC0346132B02D04FF08C
:1013D800FF332DE07B689BB21B029BB203F5804371
:1013E80002339BB218460121FFF7C0FA134B1B7852
:1013F800FB737B689BB21B029BB203F580430133EE
:101408009BB218460221FFF765FA00BF7B68DBB282
:101418001846FFF7D1FB0346002BF7D100BF7B68C6
:10142800DBB21846FFF7E4FB0346142BF7D1002381
:1014380018461037BD4680BD68040020D031012011
:1014480080B582B000AF0423FB7136200121FFF77D
:101458008DFA154B1B78FB71FB791B029BB203F5C8
:10146800804302339BB218460121FFF77FFA0E4BE7
:101478001B78FB7144F20200FF21FFF72BFAFB797E
:10148800022B0AD0042B02D0012B08D008E0074B0E
:101498001B68184600F016FC02E000BF00E000BF21
:1014A8000837BD4680BD00BFD0310120C4310120BE
:1014B80080B500AF012003F0C1FB0346002B04D028
:1014C800012003F0A1FBFFF7BBFF80BD80B483B010
:1014D80000AF0346FB71094B97F907205209F979C8
:1014E80001F01F01012000FA01F1403243F82210F7
:1014F8000C37BD465DF8047B704700BF00E100E093
:1015080080B584B004AF00F0D9F801230093074BED
:10151800019300230293002303930548054982227F
:10152800002300F049FA00F01BFCFEE7C43101205B
:1015380041150008445B000880B5A8B000AF78608A
:10154800554A07F188031068186092889A80534AB0
:1015580007F1840310681860514A07F18003106886
:101568001860504A07F17C03106818600123C7F817
:101578009C3001200021032201F0B8F902464A4BB1
:101588001A60FFF779FA00F0B7FC0346BB6707F16A
:10159800780318464FF4FA7100F0C2FA07F1840193
:1015A80007F1800207F17C03084611461A46FFF747
:1015B800D9FA07F188031846FFF7B6FA07F170035E
:1015C8001846FFF7BDFA07F170031846FFF7E2FA6D
:1015D80017200221FFF7CAF907F1700318463349AB
:1015E8000222FEF7F7FD97F870301B029AB297F8BF
:1015F800713013439BB2A7F89A3017200121FFF7E7
:10160800B5F92A4B1B7887F86F300120502100224A
:10161800FFF7A6FC034687F8993097F899301846E3
:10162800FFF7BAFE224B1B68184600F0D1FA97F86C
:10163800992007F108031046194664220023FFF792
:1016480039FEC7F8940007F108031846194904221F
:1016580004F09EF90346002B10D1174BC7F89030C1
:1016680097F899301846D7F8901004220023FFF70E
:101678005DFD97F899301846FFF71AFDD7F89430B2
:101688009BB297F8991007F10802084611461A46C6
:101698000023FFF74BFDC5E75C5B0008645B0008AF
:1016A800685B00086C5B0008C0310120D031012064
:1016B800C43101204C5B0008545B000880B500AFC2
:1016C80000F0CCF84FF4407002F0AAF9FEF71CFEC7
:1016D80000F082F880BD00BF80B500AF064B1B68E4
:1016E8005A1C054B1A601C20FFF7F0FE024B1B68C2
:1016F8005A1E014B1A6080BD7004002080B400AFF0
:101708000B4B1B685A1C0A4B1A60094B1A68094B89
:101718001B689A4203D9064B1A68064B1A60044B99
:101728001B685A1E024B1A60BD465DF8047B704761
:10173800700400207404002080B500AF064B1B68BD
:101748005A1C054B1A601D20FFF7C0FE024B1B6890
:101758005A1E014B1A6080BD7004002080B582B00B
:1017680000AF00237B60402003F0E6FA094B1A68BB
:101778003B1D104600211A46002301F0A9F97B6899
:10178800002B03D0044B4FF080521A600837BD4637
:1017980080BD00BF7804002004ED00E080B500AFF4
:1017A80001F0A6FDFEE700BF80B400AFBD465DF8BE
:1017B800047B704780B582B000AF7860396001F073
:1017C80097FDFEE780B483B000AF786039600C37CE
:1017D800BD465DF8047B704780B500AF012002F07C
:1017E800F1F8002002F0EEF8022002F0EBF80320F6
:1017F80002F0E8F880BD00BF002100F004B8104BEB
:101808005B58435004310F480F4B42189A42FFF47B
:10181800F6AF0E4A00F003B8002342F8043B0C4B25
:101828009A42FFF4F9AF0B48016841F47001016076
:1018380000F014F804F006F8FFF762FE70470000A5
:10184800285E00080000002048040020480400200A
:101858007841012088ED00E0FFF7FEBF80B500AFBA
:10186800154B154AD2F8882042F47002C3F8882034
:10187800124B124A126842F001021A600F4B002202
:101888009A600E4A0D4B1B6823F0847323F480334F
:1018980013600A4B0A4A5A60084B084A126822F435
:1018A80080221A60054B0022DA6000F00BF8024B28
:1018B8004FF000629A6080BD00ED00E00038024001
:1018C8001030002480B483B000AF00237B60002375
:1018D8003B60354B344A126842F480321A60324B0E
:1018E8001B6803F400333B607B6801337B603B6813
:1018F800002B03D17B68B3F5A06FF0D12A4B1B688E
:1019080003F40033002B02D001233B6001E00023E5
:101918003B603B68012B42D1234B234A126C42F0B7
:1019280080521A64214B214A126842F480421A609C
:101938001D4B1D4A92689A601B4B1B4A926842F4E1
:1019480000429A60184B184A926842F4A0529A6072
:10195800154B174A5A60144B134A126842F08072AA
:101968001A6000BF104B1B6803F00073002BF9D0FE
:10197800104B40F204621A600B4B0B4A926822F03B
:1019880003029A60084B084A926842F002029A6081
:1019980000BF054B9B6803F00C03082BF9D10C37EB
:1019A800BD465DF8047B7047003802400070004077
:1019B800194B4007003C024080B58AB002AFF8607E
:1019C800B9603B601346FB80FB68002B02D101F035
:1019D8008FFCFEE7BB6A042B02D901F089FCFEE705
:1019E800FB881846396B00F021FEB861BB69002BF3
:1019F80072D0BB691A6BFB8803F18043013B9B00E3
:101A080013447B617B6923F007037B617B6903F0E7
:101A18000703002B02D001F06BFCFEE7FB88009364
:101A2800B869B968BA6A7B6B00F00AFD7869F96829
:101A38003A6801F06BFB0246BB691A60FB6A002B2F
:101A480002D0FB6ABA691A6001F030FC2E4B1B68A1
:101A58005A1C2D4B1A602D4B1B68002B09D12B4BA0
:101A6800BA691A60284B1B68012B0FD100F030FDB2
:101A78000CE0274B1B68002B08D1244B1B68DA6A43
:101A8800BB6A9A4202D8214BBA691A60214B1B687B
:101A98005A1C204B1A601F4B1A68BB691A64BB6931
:101AA800DA6A1D4B1B689A4203D9BB69DA6A1A4B7A
:101AB8001A60BB69DA6A13469B0013449B00174AF5
:101AC8001A44BB6904331046194601F099FA0123F8
:101AD800FB6101F0FBFB02E04FF0FF33FB61FB69A8
:101AE800012B0BD10A4B1B68002B07D0074B1B6837
:101AF800DA6ABB6A9A4201D201F0C8FBFB69184650
:101B08002037BD4680BD00BF540500207C0400205E
:101B180060050020740500205C050020800400207A
:101B280080B586B000AF7860396000237B617B6840
:101B3800002B02D101F0DCFBFEE73B68002B02D151
:101B480001F0D6FBFEE700F043F91F4B1B683B6131
:101B58007B681A683B681344FB607B681A683B69BA
:101B68009A420BD97B681A68FB689A4211D9FA68BD
:101B78003B699A420DD901237B610AE07B681A68A8
:101B8800FB689A4203D8FA683B699A4201D9012353
:101B98007B617B68FA681A607B69002B08D00B4B65
:101BA8001B680433184601F087FAF86800F008FD4E
:101BB80000F01CF9B860BB68002B01D101F066FB8E
:101BC8001837BD4680BD00BF580500207C040020A2
:101BD80080B584B000AF786001F068FB7B68002BAB
:101BE80002D11B4B1B6800E07B68FB60FB68043379
:101BF800184601F061FAFB689B6A002B04D0FB6869
:101C08001833184601F058FAFB680433114819468E
:101C180001F0F6F901F05AFB0D4B1B68FA689A427D
:101C280012D10D4B1B68002B02D001F02FFB0BE0EB
:101C3800084B1A68094B1B689A4203D1044B0022CF
:101C48001A6001E000F040FA1037BD4680BD00BFC1
:101C58007C04002040050020600500205405002079
:101C680080B584B000AF78600023FB607B68BB6000
:101C78007B68002B02D101F03BFBFEE7BB685A6989
:101C88000E4B9A4201D1012300E00023002B0FD014
:101C9800BB689A6A0A4B9A420AD0BB689B6A002BB7
:101CA80001D1012300E00023002B01D00123FB60B8
:101CB800FB6818461037BD4680BD00BF40050020B0
:101CC8001405002080B584B000AF78607B68FB60A5
:101CD8007B68002B02D101F00BFBFEE7FB68002BB1
:101CE80034D01C4B1B68FA689A422FD001F0DEFAF8
:101CF800F868FFF7B5FF0346012B25D1FB680433CD
:101D0800184601F0D9F9FB68DA6A134B1B689A4246
:101D180003D9FB68DA6A104B1A60FB68DA6A134663
:101D28009B0013449B000D4A1A44FB680433104679
:101D3800194601F065F9FB68DA6A064B1B68DB6A2D
:101D48009A4201D301F0A2FA01F0C0FA1037BD4659
:101D580080BD00BF7C0400205C05002080040020BA
:101D680080B586B004AF00230093002301930023BD
:101D78000293002303931248124982220023FFF79B
:101D88001BFE78607B68012B02D101F04BFB786069
:101D98007B68012B0AD101F0ABFA0B4B01221A60C8
:101DA8000A4B00221A6001F00BFA05E07B68002B51
:101DB80002D101F09DFAFEE70837BD4680BD00BF9D
:101DC80025240008945B00086005002058050020C1
:101DD80080B400AF044B1B685A1C034B1A60BD4605
:101DE8005DF8047B704700BF6405002080B582B0B1
:101DF80000AF00237B60384B1B68002B02D101F039
:101E080077FAFEE701F052FA334B1B685A1E324B41
:101E18001A60314B1B68002B56D1304B1B68002BC6
:101E280052D02FE02E4BDB68DB683B603B681833F1
:101E3800184601F041F93B680433184601F03CF9B3
:101E48003B68DA6A274B1B689A4203D93B68DA6A0F
:101E5800244B1A603B68DA6A13469B0013449B00C4
:101E6800214A1A443B6804331046194601F0C8F861
:101E78003B68DA6A1D4B1B68DB6A9A4202D31C4B2B
:101E880001221A60164B1B68002BCBD1194B1B681B
:101E9800002B11D00CE000F041F80346002B02D0D3
:101EA800134B01221A60134B1B685A1E114B1A6000
:101EB800104B1B68002BEED10D4B1B68012B03D177
:101EC80001237B6001F0E2F901F000FA7B68184613
:101ED8000837BD4680BD00BF6405002054050020BA
:101EE800140500205C050020800400207C040020EC
:101EF8006C0500206805002080B582B000AF01F0B5
:101F0800D5F9054B1B687B6001F0E0F97B68184642
:101F18000837BD4680BD00BF5805002080B586B093
:101F280000AF00237B615D4B1B68002B40F0A48051
:101F38005B4B1B685A1C5A4B1A60594B1B683B6118
:101F48003B69002B2ED1574B1B681B68002B02D016
:101F580001F0CEF9FEE7534B1B68FB60524B1A6841
:101F6800504B1A60504BFA681A60504B1B685A1C49
:101F78004E4B1A604B4B1B681B68002B01D1012389
:101F880000E00023002B04D0494B4FF0FF321A60C9
:101F980008E0444B1B68DB68DB68BB60BB685A68B9
:101FA800434B1A60424B1B683A699A424FD33D4BE8
:101FB8001B681B68002B01D1012300E00023002BC4
:101FC80004D03B4B4FF0FF321A6040E0354B1B68A2
:101FD800DB68DB68BB60BB685B687B603A697B6811
:101FE8009A4203D2324B7A681A6030E0BB680433F5
:101FF800184601F061F8BB689B6A002B04D0BB68E7
:102008001833184601F058F8BB68DA6A294B1B6880
:102018009A4203D9BB68DA6A264B1A60BB68DA6A47
:1020280013469B0013449B00234A1A44BB6804339D
:102038001046194600F0E4FFBB68DA6A1F4B1B68BC
:10204800DB6A9A4202D301237B61B0E7AFE71B4BFF
:102058001B68DA6A184913469B0013449B000B441B
:102068001B68012B01D901237B61154B1B68002BD1
:1020780009D1FFF731FB06E0114B1B685A1C104BC6
:102088001A60FFF729FB0F4B1B68002B01D00123B7
:102098007B617B6918461837BD4680BD6405002002
:1020A800580500200C0500201005002070050020B0
:1020B800040000205C050020800400207C0400202F
:1020C800680500206C05002080B582B000AF354B54
:1020D8001B68002B03D0344B01221A605EE0324BA0
:1020E80000221A60314B1B681A68304B1B681B6B47
:1020F8009A4208D82D4B1A682C4B1B68343310466B
:102108001946FFF757FB294B1B681B6B18462849D4
:10211800142203F0BFFB0346002B09D0234B1A6897
:10212800224B1B68343310461946FFF743FB0CE07B
:102138000BE0204B1B68002B02D101F0D9F8FEE719
:102148001C4B1B685A1E1B4B1A601A4B1A681A49FB
:1021580013469B0013449B000B441B68002BE8D0DC
:10216800144B1A6813469B0013449B00124A1344ED
:102178007B607B685B685A687B685A607B685A68D2
:102188007B6808339A4204D17B685B685A687B682D
:102198005A607B685B68DA68044B1A600837BD468A
:1021A80080BD00BF640500206C0500207C04002071
:1021B800D05D00085C0500208004002080B584B054
:1021C80000AF786039607B68002B02D101F090F88D
:1021D800FEE7124B1B6818337868194600F034FF85
:1021E8000E4B1B680433184600F066FF3B68B3F1DA
:1021F800FF3F07D1094B1B6804330948194600F013
:10220800FFFE07E0074B1A683B681344FB60F86859
:1022180000F0D6F91037BD4680BD00BF7C04002011
:10222800400500205805002080B584B000AF7860D4
:1022380039607B68002B02D101F05AF8FEE70C4B9D
:102248001B6818337868194600F0DAFE084B1B68DB
:102258000433184600F030FF064B1A683B681344F5
:10226800FB60F86800F0ACF91037BD4680BD00BFD0
:102278007C0400205805002080B584B000AF786049
:102288007B68DB68DB68BB60BB68002B02D101F0B0
:102298002FF8FEE7BB681833184600F00DFF1E4BF9
:1022A8001B68002B1DD1BB680433184600F004FFDF
:1022B800BB68DA6A194B1B689A4203D9BB68DA6AA9
:1022C800164B1A60BB68DA6A13469B0013449B00DE
:1022D800134A1A44BB6804331046194600F090FEAE
:1022E80005E0BB6818330F48194600F089FEBB6843
:1022F800DA6A0D4B1B68DB6A9A4205D30123FB603F
:102308000A4B01221A6001E00023FB60FB681846B3
:102318001037BD4680BD00BF640500205C05002065
:1023280080040020140500207C0400206C05002097
:1023380080B582B000AF78607B68002B02D100F0D6
:10234800D7FFFEE7054B1A687B681A60044B1A68CA
:102358007B685A600837BD4680BD00BF7005002005
:102368005805002080B584B000AF786039607B687C
:10237800002B02D100F0BCFFFEE73B68002B02D126
:1023880000F0B6FFFEE700F091FF1C4B1B68BB6036
:102398003B681B68B3F1FF3F02D10023FB6026E0D6
:1023A8007B681A68164B1B689A4207D07B685A6884
:1023B800BB689A4202D80123FB6018E07B685B681F
:1023C800BA68D21A3B681B689A420ED23B681A68F0
:1023D8007B685968BB68CB1A1A443B681A607868EE
:1023E800FFF7A6FF0023FB6001E00123FB6000F07C
:1023F8006DFFFB6818461037BD4680BD58050020A4
:102408007005002080B400AF034B01221A60BD465E
:102418005DF8047B704700BF6C05002080B582B072
:1024280000AF786000F092F8044B1B68012B01D9CB
:1024380000F02CFFFFF7B8F9F4E700BF8004002094
:1024480080B586B000AFF860B9607A603B60002361
:102458007B6112E0BA687B6913441A78F9687B6972
:102468000B4430331A71BA687B6913441B78002B0C
:1024780000D105E07B6901337B617B69092BE9D9D0
:10248800FB68002283F83D207B68042B01D90423D4
:102498007B60FB687A68DA62FB687A689A64FB6832
:1024A8000433184600F0A0FDFB681833184600F006
:1024B8009BFDFB68FA681A617B68C3F10502FB683B
:1024C8009A61FB68FA685A621837BD4680BD00BF3A
:1024D80080B582B000AF00237B600CE07A681346B9
:1024E8009B0013449B00114A1344184600F05CFDFE
:1024F8007B6801337B607B68042BEFD90C4800F0C4
:1025080053FD0C4800F050FD0B4800F04DFD0B4802
:1025180000F04AFD0A4800F047FD0A4B044A1A60D9
:10252800094B044A1A600837BD4680BD8004002064
:10253800E4040020F80400201405002028050020E9
:10254800400500200C0500201005002080B582B051
:1025580000AF28E0FFF73CFC164B1B68002B14BFAC
:1025680000230123DBB27B60FFF740FC7B68002B74
:1025780019D100F09BFE0F4BDB68DB683B603B68C2
:102588000433184600F098FD0B4B1B685A1E0A4B83
:102598001A600A4B1B685A1E084B1A6000F096FE18
:1025A800386800F075F8054B1B68002BD2D1083746
:1025B800BD4680BD28050020540500203C050020AC
:1025C80080B582B000AF7860134B1B687A685A6098
:1025D800124B1B687A689A4209D2114B1A680E4B43
:1025E8001B6804331046194600F02EFD10E00D4B11
:1025F8001A68094B1B6804331046194600F024FD7D
:10260800094B1B687A689A4202D2074B7A681A60AB
:102618000837BD4680BD00BF7C0400205805002057
:10262800100500200C0500200400002080B584B0AF
:1026380000AF03463960FB804C2001F069F9F8606F
:10264800FB68002B1FD03B68002B06D1FB889B0042
:10265800184601F05DF9034600E03B68FA68136329
:10266800FB681B6B002B05D1F86801F09DF900236E
:10267800FB6008E0FB681A6BFB889B001046A521ED
:102688001A4603F03BF9FB6818461037BD4680BD73
:1026980080B582B000AF78607B681B6B184601F08C
:1026A80083F9786801F080F90837BD4680BD00BF1E
:1026B80080B483B000AF054B1B687B607B6818460D
:1026C8000C37BD465DF8047B704700BF7C040020D2
:1026D80080B483B000AF0B4B1B68002B02D10023E2
:1026E8007B6008E0084B1B68002B02D101237B604C
:1026F80001E002237B607B6818460C37BD465DF815
:10270800047B7047600500206405002080B584B014
:1027180000AF78607B68FB607B68002B46D0FB6865
:10272800DA6A244B1B68DB6A9A423FD2214B1B684A
:10273800DB6AC3F10502FB689A61FB685969FB68AB
:10274800DA6A13469B0013449B001B4A13449942C0
:1027580001D1012300E00023002B22D0FB680433C1
:10276800184600F0A9FC134B1B68DA6AFB68DA62AA
:10277800FB68DA6A114B1B689A4203D9FB68DA6A6C
:102788000E4B1A60FB68DA6A13469B0013449B00E1
:10279800094A1A44FB6804331046194600F030FC15
:1027A80004E0044B1B68DA6AFB68DA621037BD463E
:1027B80080BD00BF7C040020800400205C05002050
:1027C80080B584B000AF78607B68FB607B68002BC5
:1027D8002CD0FB68DA6AFB689B6C9A4226D0FB68AF
:1027E8000433184600F068FCFB689A6CFB68DA62F0
:1027F800FB68DB6AC3F10502FB689A61FB68DA6A69
:102808000C4B1B689A4203D9FB68DA6A094B1A60B9
:10281800FB68DA6A13469B0013449B00064A1A4475
:10282800FB6804331046194600F0EAFB1037BD4632
:1028380080BD00BF5C0500208004002080B584B006
:1028480000AF786039607B68FB60FB68002B02D1C1
:1028580000F04EFDFEE700F029FDFB681A68FB68F2
:10286800DB6BF968096C01FB03F31A44FB685A60D7
:10287800FB6800229A63FB681A68FB689A60FB6829
:102888001A68FB68DB6B013BF968096C01FB03F311
:102898001A44FB68DA60FB684FF0FF325A64FB6841
:1028A8004FF0FF329A643B68002B0ED1FB681B691E
:1028B800002B14D0FB6810331846FFF7DDFC0346E5
:1028C800012B0CD100F0E2FC09E0FB68103318463C
:1028D80000F06AFBFB682433184600F065FB00F043
:1028E800F5FC012318461037BD4680BD80B588B079
:1028F80000AFF860B9601346FB710023FB61FB6809
:10290800002B2AD0502001F003F8B861BB69002BD6
:1029180023D0FB68BA6802FB03F301337B61786953
:1029280000F0F6FF0246BB691A60BB691B68002B02
:1029380010D0BB69FA68DA63BB69BA681A64B86907
:102948000121FFF77BFFBB69FA7983F84D20BB694A
:10295800FB6102E0B86901F027F8FB69002B02D19E
:1029680000F0C6FCFEE7FB6918462037BD4680BD6F
:1029780080B588B000AFF860B9607A603B6000232A
:10298800FB61FB68BB61BB69002B02D100F0B0FCA6
:10299800FEE7BB68002B03D1BB691B6C002B01D180
:1029A800012300E00023002B02D100F0A1FCFEE788
:1029B8003B68022B03D1BB69DB6B012B01D10123DF
:1029C80000E00023002B02D100F092FCFEE700F0AB
:1029D8006DFCBB699A6BBB69DB6B9A4202D33B689F
:1029E800022B16D1B869B9683A6800F0A9F9BB6931
:1029F8005B6A002B09D0BB6924331846FFF73CFCFF
:102A08000346012B01D100F041FC00F05FFC0123DB
:102A180059E07B68002B03D100F058FC002352E0FA
:102A2800FB69002B06D107F110031846FFF780FC5D
:102A38000123FB6100F04AFCFFF7CAF900F036FCFD
:102A4800BB695B6CB3F1FF3F02D1BB6900225A64DA
:102A5800BB699B6CB3F1FF3F02D1BB6900229A644A
:102A680000F034FC07F110023B1D10461946FFF731
:102A780079FC0346002B1ED1B86900F051FA0346D1
:102A8800002B12D0BB6903F110027B68104619466F
:102A9800FFF794FBB86900F0E1F9FFF7A7F90346DF
:102AA800002B0FD100F0F2FB0CE0B86900F0D6F96A
:102AB800FFF79CF98BE7B86900F0D0F9FFF796F9B2
:102AC800002300E083E718462037BD4680BD00BFDD
:102AD80080B588B000AFF860B9607A603B60FB6889
:102AE800BB61BB69002B02D100F002FCFEE7BB68AA
:102AF800002B03D1BB691B6C002B01D1012300E023
:102B08000023002B02D100F0F3FBFEE73B68022B09
:102B180003D1BB69DB6B012B01D1012300E000234A
:102B2800002B02D100F0E4FBFEE700F04FFC00F0C0
:102B3800DFFB7861BB699A6BBB69DB6B9A4202D396
:102B48003B68022B24D1B869B9683A6800F0F8F8F4
:102B5800BB699B6CB3F1FF3F12D1BB695B6A002B69
:102B680013D0BB6924331846FFF786FB0346002BB6
:102B78000BD07B68002B08D07B6801221A6004E028
:102B8800BB699B6C5A1CBB699A640123FB6101E019
:102B98000023FB61786900F0B5FBFB691846203714
:102BA800BD4680BD80B58AB000AFF860B9607A6074
:102BB8003B6000237B62FB683B623B6A002B02D1CF
:102BC80000F096FBFEE7BB68002B03D13B6A1B6C49
:102BD800002B01D1012300E00023002B02D100F0DB
:102BE80087FBFEE700F062FB3B6A9B6B002B3BD048
:102BF8003B6ADB68FB61386AB96800F009F93B6831
:102C0800002B1CD13B6A9B6B5A1E3B6A9A633B6A3A
:102C18001B68002B04D1FFF74BFD02463B6A5A6044
:102C28003B6A1B69002B1BD03B6A10331846FFF721
:102C380023FB0346012B13D100F028FB10E03B6A6D
:102C4800FA69DA603B6A5B6A002B09D03B6A243375
:102C58001846FFF711FB0346002B01D000F016FBC6
:102C680000F034FB012366E07B68002B03D100F001
:102C78002DFB00235FE07B6A002B06D107F11403CC
:102C88001846FFF755FB01237B6200F01FFBFFF797
:102C98009FF800F00BFB3B6A5B6CB3F1FF3F02D17E
:102CA8003B6A00225A643B6A9B6CB3F1FF3F02D136
:102CB8003B6A00229A6400F009FB07F114023B1DED
:102CC80010461946FFF74EFB0346002B2BD1386AF6
:102CD80000F010F90346002B1FD03B6A1B68002B3D
:102CE80008D100F0E3FA3B6A5B681846FFF70EFD6F
:102CF80000F0ECFA3B6A03F124027B68104619469F
:102D0800FFF75CFA386A00F0A9F8FFF76FF8034696
:102D1800002B0FD100F0BAFA0CE0386A00F09EF8E8
:102D2800FFF764F85EE7386A00F098F8FFF75EF896
:102D3800002300E056E718462837BD4680BD00BF8F
:102D480080B584B000AFF860B9607A60FB681B6C2E
:102D5800002B0CD1FB681B68002B51D1FB685B680A
:102D68001846FFF72DFDFB6800225A6048E07B6893
:102D7800002B1AD1FB689A68FB681B6C1046B9686F
:102D88001A46FDF727FAFB689A68FB681B6C1A4419
:102D9800FB689A60FB689A68FB685B689A422FD365
:102DA800FB681A68FB689A602AE0FB68DA68FB68C7
:102DB8001B6C1046B9681A46FDF70CFAFB68DA680E
:102DC800FB681B6C5B421A44FB68DA60FB68DA68D4
:102DD800FB681B689A4207D2FB685A68FB681B6C41
:102DE8005B421A44FB68DA607B68022B08D1FB68F7
:102DF8009B6B002B04D0FB689B6B5A1EFB689A6385
:102E0800FB689B6B5A1CFB689A631037BD4680BDF4
:102E180080B582B000AF786039607B681B68002B92
:102E280019D07B68DA687B681B6C1A447B68DA60A7
:102E38007B68DA687B685B689A4203D37B681A68A8
:102E48007B68DA607B68DA687B681B6C38681146D7
:102E58001A46FDF7BFF90837BD4680BD80B582B078
:102E680000AF786000F022FA14E07B685B6A002B00
:102E78000AD07B6824331846FFF7FEF90346002B77
:102E880003D0FFF7BFFA00E008E07B689B6C5A1E8E
:102E98007B689A647B689B6C002BE6DC7B684FF050
:102EA800FF329A6400F012FA00F000FA14E07B682E
:102EB8001B69002B0FD07B6810331846FFF7DCF92D
:102EC8000346002B01D0FFF79DFA7B685B6C5A1E06
:102ED8007B685A6400E003E07B685B6C002BE6DCEF
:102EE8007B684FF0FF325A6400F0F0F90837BD46AE
:102EF80080BD00BF80B584B000AF786000F0D6F91F
:102F08007B689B6B002B02D10123FB6001E000234F
:102F1800FB6000F0DBF9FB6818461037BD4680BD42
:102F280080B584B000AF786000F0C0F97B689A6B18
:102F38007B68DB6B9A4202D10123FB6001E000232E
:102F4800FB6000F0C3F9FB6818461037BD4680BD2A
:102F580080B584B000AF786039607B68FB6000F0B2
:102F6800A5F9FB685B6CB3F1FF3F02D1FB68002257
:102F78005A64FB689B6CB3F1FF3F02D1FB680022E7
:102F88009A6400F0A3F9FB689B6B002B05D1FB68E2
:102F9800243318463968FFF747F9F868FFF75EFFEA
:102FA8001037BD4680BD00BF80B483B000AF7860E5
:102FB8007B6803F108027B685A607B684FF0FF3238
:102FC8009A607B6803F108027B68DA607B6803F12A
:102FD80008027B681A617B6800221A600C37BD46BC
:102FE8005DF8047B704700BF80B483B000AF7860A1
:102FF8007B6800221A610C37BD465DF8047B704778
:1030080080B485B000AF786039607B685B68FB602E
:103018003B68FA685A60FB689A683B689A60FB6884
:103028009B683A685A60FB683A689A603B687A68B5
:103038001A617B681B685A1C7B681A601437BD4686
:103048005DF8047B704700BF80B485B000AF78603E
:1030580039603B681B68BB60BB68B3F1FF3F03D1B5
:103068007B681B69FB600CE07B680833FB6002E04F
:10307800FB685B68FB60FB685B681A68BB689A4220
:10308800F6D9FB685A683B685A603B685B683A68DF
:103098009A603B68FA689A60FB683A685A603B68CD
:1030A8007A681A617B681B685A1C7B681A60143737
:1030B800BD465DF8047B704780B485B000AF78608A
:1030C8007B685B687A6892689A607B689B687A68B4
:1030D80052685A607B681B69FB60FB685A687B68AA
:1030E8009A4203D17B689A68FB685A607B68002221
:1030F8001A61FB681B685A1EFB681A60FB681B682C
:1031080018461437BD465DF8047B704780B485B017
:1031180000AFF860B9607A60FB68043BFB60FB684D
:103128004FF080721A60FB68043BFB60BA68FB686A
:103138001A60FB68043BFB600C4AFB681A60FB687A
:10314800143BFB607A68FB681A60FB68043BFB6011
:10315800FB686FF002021A60FB68203BFB60FB68AB
:1031680018461437BD465DF8047B7047793100086E
:1031780080B500AF054B1B68B3F1FF3F02D000F0EC
:10318800B7F8FEE700F0B4F8FEE700BF080000203B
:10319800054B19680868B0E8F04F80F309884FF0CC
:1031A800000080F3118870477C0400200348006801
:1031B800006880F3088862B600DF00BF08ED00E011
:1031C80080B584B000AF2B4BFB60FB681B78DBB28B
:1031D800BB60FB68FF221A70FB681B78DBB2FB71CF
:1031E800FB79DBB203F05003DAB2234B1A70234B9E
:1031F80007221A6009E0214B1B685A1E1F4B1A60F0
:10320800FB79DBB25B00DBB2FB71FB79DBB2DBB2D3
:103218005BB2002BEFDB194B1B681A02174B1A60C5
:10322800164B1B6803F4E062144B1A60BB68DAB2F1
:10323800FB681A70124B124A126842F470021A6044
:103248000F4B0F4A126842F070421A6000F09AF869
:103258000C4B00221A6000F0AFF80B4B0A4A1268B8
:1032680042F040421A60FFF7A1FF002318461037CA
:10327800BD4680BD00E400E0780500207C05002004
:1032880020ED00E00800002034EF00E080B400AF3B
:10329800054B4FF080521A60BFF34F8FBFF36F8F0B
:1032A800BD465DF8047B704704ED00E080B500AFD3
:1032B80000F01EF8044B1B685A1C034B1A60BFF33E
:1032C8004F8FBFF36F8F80BD0800002080B500AF1F
:1032D800064B1B685A1E054B1A60044B1B68002BD3
:1032E80002D1002000F00EF880BD00BF08000020C9
:1032F800EFF311804FF0500181F3118870470023DC
:10330800184600BF80F31188704700BFEFF30980AB
:10331800114B1A681EF0100F08BF20ED108A20E923
:10332800F04F10602DE908404FF0500080F31188ED
:10333800FEF7CAFE4FF0000080F31188BDE8084090
:1033480019680868B0E8F04F1EF0100F08BFB0EC1D
:10335800108A80F3098870477C04002080B500AF8C
:10336800FFF7C6FFFEF7DAFD0346002B03D0044B38
:103378004FF080521A600020FFF7C4FF80BD00BFE5
:1033880004ED00E080B400AF074B084A1168084A12
:10339800A2FB01029209013A1A60064B07221A6041
:1033A800BD465DF8047B704714E000E00000002093
:1033B800D34D621010E000E0DFF80C00016841F422
:1033C800700101607047000088ED00E080B582B0B0
:1033D80000AFEFF305837B607B680F2B0CD90D4A98
:1033E8007B6813441B78FB700B4B1B78FA789A4266
:1033F80002D2FFF77DFFFEE7084B1B6803F4E0628B
:10340800074B1B689A4202D9FFF772FFFEE708379D
:10341800BD4680BDF0E300E0780500200CED00E03B
:103428007C05002080B586B004AF00237B6000F0E7
:1034380045FA0F4B1B68002B0FD002230093002383
:10344800019300230293002303930A480A494FF487
:1034580082720023FEF7B0FA78607B68002B02D1F5
:10346800FFF746FFFEE77B6818460837BD4680BD74
:10347800B0050020813500089C5B000880B588B045
:1034880000AFF860B9607A603B600023FB611D4BB8
:103498001B68002B30D0BB683B617B687B61FB6895
:1034A800BB613B68002B1CD1FFF712F90346012BC7
:1034B8000BD1144B1A6807F1100310461946BA6A63
:1034C8000023FFF755FAF86116E00E4B1A6807F16A
:1034D80010031046194600220023FFF749FAF86145
:1034E8000AE0084B1A6807F11003104619463A68B3
:1034F8000023FFF7EDFAF861FB6918462037BD464F
:1035080080BD00BFB005002080B586B002AF7860EE
:103518003960184B1B68DB68DB68FB60FB680433A9
:103528001846FFF7C9FDFB68DB69012B1BD1FB6857
:103538009A697B681344F86819463A687B6800F012
:10354800A9F80346012B0ED100230093F868002147
:103558007A680023FFF792FFB860BB68002B02D19E
:10356800FFF7C6FEFEE7FB685B6AF8689847103706
:10357800BD4680BDA805002080B584B000AF786046
:1035880007F10803184600F03FF8F860BB68F868D0
:10359800194600F003F800F0BFF8F1E780B584B0F1
:1035A80000AF78603960FEF713FC07F1080318468E
:1035B80000F04EF8F860BB68002B1ED13B68002B6A
:1035C8000AD17A68FB689A4206D8FEF70FFC786839
:1035D800F968FFF799FF12E00A4B1A687968FB68E7
:1035E800CB1A10461946FFF7B3FCFEF7FFFB03465C
:1035F800002B04D1FFF74AFE01E0FEF7F7FB103776
:10360800BD4680BDB005002080B485B000AF7860AD
:103618000E4B1B681B68002B14BF00230123DBB271
:103628001A467B681A607B681B68002B05D1074B1C
:103638001B68DB681B68FB6001E00023FB60FB681C
:1036480018461437BD465DF8047B7047A80500206E
:1036580080B584B000AF7860FEF74EFCF8600C4B84
:103668001B68FA689A4208D2094B1B68184600F092
:10367800CBF87B6801221A6002E07B6800221A609E
:10368800034BFA681A60FB6818461037BD4680BDC0
:10369800B405002080B586B000AFF860B9607A60E4
:1036A8003B6000237B61FB68BA685A60FB68FA6874
:1036B8001A61BA687B689A4212D87A683B68D21A4B
:1036C800FB689B699A4202D301237B611BE0104B84
:1036D8001A68FB68043310461946FFF7B5FC12E078
:1036E8007A683B689A4206D2BA683B689A4202D323
:1036F80001237B6107E0074B1A68FB680433104617
:103708001946FFF7A1FC7B6918461837BD4680BDEE
:10371800AC050020A805002080B58AB002AF60E0A3
:103728003B69FB61FB695B69002B04D0FB690433CF
:103738001846FFF7C1FC3B1D1846FFF789FFB86123
:10374800BB68032B4CD801A252F823F06537000858
:10375800E9370008B7370008E1370008FA68FB695D
:103768009B691A44FB68F8691146BA69FFF792FF2A
:103778000346012B1AD1FB695B6AF8699847FB6914
:10378800DB69012B12D1FA68FB699B69134400229B
:103798000092F86900211A460023FFF76FFE78614E
:1037A8007B69002B02D1FFF7A3FDFEE719E0FA6859
:1037B800FB699A61FB699B69002B02D1FFF798FDB1
:1037C800FEE7FB699A69BB691344F8691946BA6947
:1037D800BB69FFF75FFF04E0F86900F0E5F800E077
:1037E80000BF084B1A6807F1080310461946002263
:1037F8000023FFF7D7F90346002B91D12037BD46A8
:1038080080BD00BFB005002080B58AB002AF7860E7
:103818003DE0284B1B68DB681B68FB61254B1B6878
:10382800DB68DB68BB61BB6904331846FFF744FCFF
:10383800BB695B6AB8699847BB69DB69012B26D10C
:10384800BB699A69FB6913447B617A69FB699A428F
:103858000ED9BB697A695A60BB69BA691A61154B96
:103868001A68BB69043310461946FFF7EDFB0EE0F2
:1038780000230093B8690021FA690023FFF7FEFDD1
:1038880038613B69002B02D1FFF732FDFEE7094B97
:103898001B681B68002BBCD1064B1B68FB60064BE2
:1038A8001A68044B1A60044BFA681A602037BD4640
:1038B80080BD00BFA8050020AC05002080B500AF82
:1038C800FFF7F4FC0D4B1B68002B13D10C48FFF7D6
:1038D8006BFB0C48FFF768FB0B4B094A1A600B4B54
:1038E800084A1A600A200C210022FEF7FFFF024650
:1038F800024B1A60FFF7EAFC80BD00BFB00500204C
:103908008005002094050020A8050020AC050020B3
:1039180080B584B000AF78600023FB607B6803F05B
:103928000703002B04D07B6823F0070308337B6070
:10393800FEF74EFA184B1B68002B05D1174B23F0E6
:1039480007031A46144B1A60154B1A687B681A4409
:10395800144B9A4213D8124B1A687B681A44104BBE
:103968001B689A420BD90C4B1A680D4B1B68134401
:10397800FB600B4B1A687B681A44094B1A60FEF708
:1039880035FAFB68002B01D1FDF708FFFB681846E4
:103998001037BD4680BD00BFBC310120C0050020E6
:1039A800B8310120F72B010080B582B000AF7860F4
:1039B8007B68002B02D0FFF79BFCFEE70837BD466B
:1039C80080BD00BF80B584B000AF0346FB71FA79B3
:1039D800104B53F822301846012101F007FCFA7900
:1039E8000D4B33F81230BB6001233B730023BB73CC
:1039F8000123FB7302237B73FA79084B53F82220C7
:103A080007F108031046194601F0B2F91037BD4610
:103A180080BD00BFEC5D0008E45D00080C000020DC
:103A280080B582B000AF78607B68B3F5E06F13D0E3
:103A38007B68B3F5C06F0FD07B68B3F5A06F0BD070
:103A48007B68B3F5806F07D07B68B3F5407F03D000
:103A580006487321FDF7B6FE054A7B6843F0BF634D
:103A680043F40033D3600837BD4680BDA45B00082B
:103A780000ED00E080B584B000AF78600023FB73F0
:103A88000023BB730F237B737B68DB78002B07D085
:103A98007B68DB78012B03D030488721FDF792FE45
:103AA8007B685B780F2B03D92C488821FDF78AFEA9
:103AB8007B689B780F2B03D928488921FDF782FE64
:103AC8007B68DB78002B37D0254BDB68DB4303F4BE
:103AD800E0631B0AFB73FB7BC3F10403BB737A7BB4
:103AE800FB7B42FA03F37B737B685B781A46BB7BEC
:103AF80002FA03F3FB737B689A787B7B1340DAB294
:103B0800FB7B1343FB73FB7B1B01FB73154A7B6831
:103B18001B781344FA7B83F80023124B7A681278D7
:103B28005209D2B27968097801F01F01012000FA20
:103B380001F143F822100EE00A4B7A681278520914
:103B4800D2B27968097801F01F01012000FA01F169
:103B5800203243F822101037BD4680BDA45B000810
:103B680000ED00E000E100E080B582B000AF7860D1
:103B78007A68724B9A423FD07A68714B9A423BD02E
:103B88007A68704B9A4237D07A686F4B9A4233D032
:103B98007A686E4B9A422FD07A686D4B9A422BD036
:103BA8007A686C4B9A4227D07A686B4B9A4223D03A
:103BB8007A686A4B9A421FD07A68694B9A421BD03E
:103BC8007A68684B9A4217D07A68674B9A4213D042
:103BD8007A68664B9A420FD07A68654B9A420BD046
:103BE8007A68644B9A4207D07A68634B9A4203D04A
:103BF8006248BF21FDF7E6FD7B681B6823F00102E0
:103C08007B681A607B6800221A607B6800225A6011
:103C18007B6800229A607B680022DA607B68002259
:103C28001A617B6821225A617A68444B9A4203D10F
:103C3800534B3D229A607EE07A68414B9A4204D108
:103C48004F4B4FF474629A6075E07A683D4B9A4224
:103C580004D14B4B4FF474129A606CE07A683A4B7B
:103C68009A4204D1464B4FF074629A6063E07A68D6
:103C7800364B9A4203D1424B424ADA605BE07A689B
:103C8800334B9A4203D13E4B3F4ADA6053E07A689D
:103C9800304B9A4203D13A4B3C4ADA604BE07A689F
:103CA8002D4B9A4204D1364B4FF03D52DA6042E038
:103CB8007A682A4B9A4203D1354B3D229A603AE002
:103CC8007A68274B9A4204D1314B4FF474629A6058
:103CD80031E07A68234B9A4204D12D4B4FF4741289
:103CE8009A6028E07A68204B9A4204D1284B4FF01A
:103CF80074629A601FE07A681C4B9A4203D1244B85
:103D0800204ADA6017E07A68194B9A4203D1204BAF
:103D18001D4ADA600FE07A68164B9A4203D11C4BB1
:103D28001A4ADA6007E07A68134B9A4203D1184BB3
:103D38004FF03D52DA600837BD4680BD1060024042
:103D480028600240406002405860024070600240B3
:103D580088600240A0600240B860024010640240DF
:103D68002864024040640240586402407064024083
:103D780088640240A0640240B8640240EC5B00081A
:103D8800006002403D000020400F002000003D2060
:103D98000064024080B584B000AF786039600023C9
:103DA800FB607A68984B9A4240D07A68974B9A425F
:103DB8003CD07A68964B9A4238D07A68954B9A42AA
:103DC80034D07A68944B9A4230D07A68934B9A42AE
:103DD8002CD07A68924B9A4228D07A68914B9A42B2
:103DE80024D07A68904B9A4220D07A688F4B9A42B6
:103DF8001CD07A688E4B9A4218D07A688D4B9A42BA
:103E080014D07A688C4B9A4210D07A688B4B9A42BD
:103E18000CD07A688A4B9A4208D07A68894B9A42C1
:103E280004D089484FF49E71FDF7CCFC3B681B68B1
:103E3800002B27D03B681B68B3F1007F22D03B687A
:103E48001B68B3F1806F1DD03B681B68B3F1C06F6E
:103E580018D03B681B68B3F1006F13D03B681B6830
:103E6800B3F1206F0ED03B681B68B3F1406F09D0E7
:103E78003B681B68B3F1606F04D0734840F23D1192
:103E8800FDF7A0FC3B68DB68002B0CD03B68DB68C7
:103E9800402B08D03B68DB68802B04D06A484FF47D
:103EA8009F71FDF78FFC3B681B69002B04D03B68B2
:103EB8001B69B3F5803F04D3634840F23F11FDF717
:103EC80081FC3B685B69B3F5007F08D03B685B69A0
:103ED800002B04D05C484FF4A071FDF773FC3B68DD
:103EE8009B69B3F5806F08D03B689B69002B04D0B1
:103EF800554840F24111FDF765FC3B68DB69002B32
:103F08000ED03B68DB69B3F5006F09D03B68DB690D
:103F1800B3F5805F04D04C484FF4A171FDF752FC13
:103F28003B681B6A002B0ED03B681B6AB3F5005F29
:103F380009D03B681B6AB3F5804F04D0424840F271
:103F48004311FDF73FFC3B685B6A002B09D03B68D7
:103F58005B6AB3F5807F04D03B484FF4A271FDF74C
:103F680031FC3B689B6A002B13D03B689B6AB3F516
:103F7800803F0ED03B689B6AB3F5003F09D03B6891
:103F88009B6AB3F5403F04D02F4840F24511FDF736
:103F980019FC3B68DB6A002B08D03B68DB6A042B02
:103FA80004D029484FF4A371FDF70CFC3B681B6B48
:103FB800002B10D03B681B6B012B0CD03B681B6B94
:103FC800022B08D03B681B6B032B04D01E4840F221
:103FD8004711FDF7F7FB3B685B6B002B36D03B685E
:103FE8005B6BB3F5000F31D03B685B6BB3F1807F3F
:103FF8002CD03B685B6BB3F1C07F27D012484FF4DD
:10400800A471FDF7DFFB21E0106002402860024048
:104018004060024058600240706002408860024080
:10402800A0600240B8600240106402402864024068
:104038004064024058640240706402408864024050
:10404800A0640240B8640240EC5B00083B689B6BCC
:10405800002B13D03B689B6BB3F5001F0ED03B6859
:104068009B6BB3F5800F09D03B689B6BB3F5C00F12
:1040780004D0284840F24911FDF7A4FB7B681B686F
:10408800FB60FA68244B1340FB603B681A683B6886
:10409800DB681A433B685B691A433B689B691A43B0
:1040A8003B68DB691A433B681B6A1A433B685B6AD7
:1040B8001A433B689B6A1A433B685B6B1A433B682D
:1040C8009B6B1343FA681343FB607B68FA681A60BA
:1040D8007B685B69FB60FB6823F00703FB603B6858
:1040E800DA6A3B681B6B1343FA681343FB607B680F
:1040F800FA685A613B681A697B685A603B685A6873
:104108007B689A603B689A687B68DA601037BD46BE
:1041180080BD00BFEC5B00083F801CF080B483B01A
:1041280000AF78607B6800221A607B6800225A60C2
:104138007B6800229A607B680022DA607B68002234
:104148001A617B6800225A617B6800229A617B6849
:104158000022DA617B6800221A627B6800225A62B8
:104168007B6800229A627B680022DA627B68002200
:104178001A637B6800225A637B6800229A630C37B3
:10418800BD465DF8047B704780B582B000AF7860AB
:104198000B46FB707A68314B9A4240D07A68304BB4
:1041A8009A423CD07A682F4B9A4238D07A682E4B84
:1041B8009A4234D07A682D4B9A4230D07A682C4B88
:1041C8009A422CD07A682B4B9A4228D07A682A4B8C
:1041D8009A4224D07A68294B9A4220D07A68284B90
:1041E8009A421CD07A68274B9A4218D07A68264B94
:1041F8009A4214D07A68254B9A4210D07A68244B98
:104208009A420CD07A68234B9A4208D07A68224B9B
:104218009A4204D0214840F2D911FDF7D3FAFB782D
:10422800002B07D0FB78012B04D01C484FF4ED710C
:10423800FDF7C8FAFB78002B06D07B681B6843F0B3
:1042480001027B681A6005E07B681B6823F00102A5
:104258007B681A600837BD4680BD00BF1060024009
:10426800286002404060024058600240706002408E
:1042780088600240A0600240B860024010640240BA
:10428800286402404064024058640240706402405E
:1042980088640240A0640240B8640240EC5B0008F5
:1042A80080B582B000AF78600B467B807A68254B7A
:1042B8009A4240D07A68244B9A423CD07A68234B81
:1042C8009A4238D07A68224B9A4234D07A68214B85
:1042D8009A4230D07A68204B9A422CD07A681F4B89
:1042E8009A4228D07A681E4B9A4224D07A681D4B8D
:1042F8009A4220D07A681C4B9A421CD07A681B4B91
:104308009A4218D07A681A4B9A4214D07A68194B94
:104318009A4210D07A68184B9A420CD07A68174B98
:104328009A4208D07A68164B9A4204D0154840F24F
:104338007521FDF747FA7A887B685A600837BD46C9
:1043480080BD00BF1060024028600240406002400B
:10435800586002407060024088600240A0600240DD
:10436800B860024010640240286402404064024081
:10437800586402407064024088640240A0640240AD
:10438800B8640240EC5B000880B584B000AF786088
:104398000023FB737A682A4B9A4240D07A68294BEB
:1043A8009A423CD07A68284B9A4238D07A68274B90
:1043B8009A4234D07A68264B9A4230D07A68254B94
:1043C8009A422CD07A68244B9A4228D07A68234B98
:1043D8009A4224D07A68224B9A4220D07A68214B9C
:1043E8009A421CD07A68204B9A4218D07A681F4BA0
:1043F8009A4214D07A681E4B9A4210D07A681D4BA4
:104408009A420CD07A681C4B9A4208D07A681B4BA7
:104418009A4204D01A4840F2A231FDF7D3F97B68DA
:104428001B6803F00103002B02D00123FB7301E09A
:104438000023FB73FB7B18461037BD4680BD00BFC9
:10444800106002402860024040600240586002400C
:104458007060024088600240A0600240B86002407C
:1044680010640240286402404064024058640240DC
:104478007064024088640240A0640240B86402404C
:10448800EC5B000880B584B000AFF860B9601346F3
:10449800FB71FA68454B9A4240D0FA68444B9A42FD
:1044A8003CD0FA68434B9A4238D0FA68424B9A4259
:1044B80034D0FA68414B9A4230D0FA68404B9A425D
:1044C8002CD0FA683F4B9A4228D0FA683E4B9A4261
:1044D80024D0FA683D4B9A4220D0FA683C4B9A4265
:1044E8001CD0FA683B4B9A4218D0FA683A4B9A4269
:1044F80014D0FA68394B9A4210D0FA68384B9A426D
:104508000CD0FA68374B9A4208D0FA68364B9A4270
:1045180004D0364840F24F41FDF754F9BB6823F008
:104528009E03002B02D1BB68002B04D12F484FF407
:104538008A61FDF747F9FB79002B07D0FB79012B3E
:1045480004D02A4840F25141FDF73CF9BB6803F01A
:104558008003002B0FD0FB79002B06D0FB685B692A
:1045680043F08002FB685A6105E0FB685B6923F051
:104578008002FB685A61BB68802B14D0FB79002B42
:1045880008D0FB681A68BB6803F01E031A43FB686F
:104598001A6008E0FB681A68BB6803F01E03DB4377
:1045A8001A40FB681A601037BD4680BD1060024093
:1045B800286002404060024058600240706002403B
:1045C80088600240A0600240B86002401064024067
:1045D800286402404064024058640240706402400B
:1045E80088640240A0640240B8640240EC5B0008A2
:1045F80080B586B000AF786039600023FB75002372
:10460800FB600023BB607A68974B9A4240D07A6877
:10461800964B9A423CD07A68954B9A4238D07A6841
:10462800944B9A4234D07A68934B9A4230D07A6845
:10463800924B9A422CD07A68914B9A4228D07A6849
:10464800904B9A4224D07A688F4B9A4220D07A684D
:104658008E4B9A421CD07A688D4B9A4218D07A6851
:104668008C4B9A4214D07A688B4B9A4210D07A6855
:104678008A4B9A420CD07A68894B9A4208D07A6859
:10468800884B9A4204D0884840F28741FDF79AF84F
:104698003A68864B9A4200F0A9803A68844B9A425D
:1046A80000F0A4803A68834B9A4200F09F803A68F1
:1046B800814B9A4200F09A803A68804B9A4200F007
:1046C80095803A687E4B9A4200F090803A687D4B1C
:1046D8009A4200F08B803A687B4B9A4200F08680C1
:1046E8003A687A4B9A4200F081803A68784B9A424D
:1046F8007CD03A68774B9A4278D03A68764B9A429F
:1047080074D03A68754B9A4270D03A68744B9A42A2
:104718006CD03A68734B9A4268D03A68724B9A42A6
:1047280064D03A68714B9A4260D03A68704B9A42AA
:104738005CD03A686F4B9A4258D03A686E4B9A42AE
:1047480054D03A686D4B9A4250D03A686C4B9A42B2
:104758004CD03A686B4B9A4248D03A686A4B9A42B6
:1047680044D03A68694B9A4240D03A68684B9A42BA
:104778003CD03A68674B9A4238D03A68664B9A42BE
:1047880034D03A68654B9A4230D03A68644B9A42C2
:104798002CD03A68634B9A4228D03A68624B9A42C6
:1047A80024D03A68614B9A4220D03A68604B9A42CA
:1047B8001CD03A685F4B9A4218D03A685E4B9A42CE
:1047C80014D03A685D4B9A4210D03A685C4B9A42D2
:1047D8000CD03A685B4B9A4208D03A685A4B9A42D6
:1047E80004D031484FF49161FCF7ECFF7A68574BDD
:1047F8009A4202D8564B3B6101E0564B3B613B68FD
:1048080023F0F02323F0C313002B0AD03B68DB0A04
:1048180003F01E03FB607B681A68FB681340BB60EB
:1048280004E07B685B6903F08003BB603B6803F0CE
:104838000053002B03D03B695B68FB6002E03B69D7
:104848001B68FB60FB6823F0F02323F08213FB60F6
:10485800FA683B681340002B7ED0BB68002B7BD0E6
:104868000123FB757AE000BF106002402860024017
:104878004060024058600240706002408860024018
:10488800A0600240B8600240106402402864024000
:1048980040640240586402407064024088640240E8
:1048A800A0640240B8640240EC5B0008208000105D
:1048B80010400010082000100410001001000090A3
:1048C80000880010004400100022001000110010A1
:1048D80040000090008020100040101000200810B8
:1048E800001004100000019000800018004000141F
:1048F80000200012001000110000409020800020CD
:10490800104000200820002004100020010000A012
:104918000088002000440020002200200011002010
:10492800400000A000802020004010200020082027
:1049380000100420000001A000800028004000248E
:104948000020002200100021000040A00F64024057
:1049580000600240006402400023FB75FB7D18469E
:104968001837BD4680BD00BF80B584B000AF786001
:1049780039607A683D4B9A4240D07A683C4B9A42FB
:104988003CD07A683B4B9A4238D07A683A4B9A4284
:1049980034D07A68394B9A4230D07A68384B9A4288
:1049A8002CD07A68374B9A4228D07A68364B9A428C
:1049B80024D07A68354B9A4220D07A68344B9A4290
:1049C8001CD07A68334B9A4218D07A68324B9A4294
:1049D80014D07A68314B9A4210D07A68304B9A4298
:1049E8000CD07A682F4B9A4208D07A682E4B9A429C
:1049F80004D02E4840F2D741FCF7E4FE3B6803F0B0
:104A08004053B3F1405F0CD03B6803F04053002B98
:104A180007D03B68002B04D03A68254B1340002B85
:104A280004D022484FF49B61FCF7CCFE7A68214BF6
:104A38009A4202D8204BFB6001E0204BFB603B68A8
:104A480003F00053002B07D03B6823F0F02323F03A
:104A58008213FA68D36006E03B6823F0F02323F062
:104A68008213FA6893601037BD4680BD106002401B
:104A78002860024040600240586002407060024076
:104A880088600240A0600240B860024010640240A2
:104A98002864024040640240586402407064024046
:104AA80088640240A0640240B8640240EC5B0008DD
:104AB800820082400F6402400060024000640240AD
:104AC80080B584B000AF78600023FB607B681B79F9
:104AD800002B07D07B681B79042B03D048487C2126
:104AE800FCF770FE7B685B79082B0BD07B685B79E1
:104AF8000C2B07D07B685B79102B03D040487D21B5
:104B0800FCF760FE7B681B68DB0DDB05002B03D11F
:104B18007B681B68002B03D139487E21FCF752FEC5
:104B28007B689B79002B07D07B689B79012B03D08E
:104B380033487F21FCF746FE324BFB607B689B794C
:104B4800002B4DD02F4B2F4A11687A681268D24338
:104B58000A401A602B4B2B4A51687A681268D24374
:104B68000A405A607B681B79FA681344FB60FB684B
:104B7800FA6811687A6812680A431A60214B214A58
:104B880091687A681268D2430A409A601D4B1D4AA0
:104B9800D1687A681268D2430A40DA607B685B7928
:104BA800102B0ED1174B174A91687A6812680A437E
:104BB8009A60144B134AD1687A6812680A43DA601B
:104BC8001BE0104BFB607B685B79FA681344FB6061
:104BD800FB68FA6811687A6812680A431A600CE080
:104BE8007B681B79FA681344FB60FB68FA681168F4
:104BF8007A681268D2430A401A601037BD4680BDF1
:104C08003C5C0008003C014080B582B000AF786091
:104C18007B68DB0DDB05002B02D17B68002B03D101
:104C28000448F621FCF7CEFD034B7A685A61083731
:104C3800BD4680BD3C5C0008003C014080B584B0A6
:104C480000AF78600023FB730023BB607B68012BF7
:104C580055D07B68022B52D07B68042B4FD07B68E1
:104C6800082B4CD07B68102B49D07B68202B46D072
:104C78007B68402B43D07B68802B40D07B68B3F5A2
:104C8800807F3CD07B68B3F5007F38D07B68B3F574
:104C9800806F34D07B68B3F5006F30D07B68B3F594
:104CA800805F2CD07B68B3F5005F28D07B68B3F5B4
:104CB800804F24D07B68B3F5004F20D07B68B3F5D4
:104CC800803F1CD07B68B3F5003F18D07B68B3F5F4
:104CD800802F14D07B68B3F5002F10D07B68B3F514
:104CE800801F0CD07B68B3F5001F08D07B68B3F534
:104CF800800F04D00E484FF48371FCF763FD0D4B11
:104D08001A687B681340BB600A4B5A697B6813407A
:104D1800002B05D0BB68002B02D00123FB7301E0F8
:104D28000023FB73FB7B18461037BD4680BD00BFD0
:104D38003C5C0008003C014080B582B000AF786060
:104D48007B68DB0DDB05002B02D17B68002B04D1CF
:104D5800054840F21D11FCF735FD044B7A685A618D
:104D68000837BD4680BD00BF3C5C0008003C0140E0
:104D780080B586B000AF7860396000237B6100237E
:104D88003B610023FB607A687A4B9A4223D07A68A9
:104D9800794B9A421FD07A68784B9A421BD07A682E
:104DA800774B9A4217D07A68764B9A4213D07A6832
:104DB800754B9A420FD07A68744B9A420BD07A6836
:104DC800734B9A4207D07A68724B9A4203D0724862
:104DD800BB21FCF7F7FC3B681B68002B03D16E482E
:104DE800BC21FCF7EFFC3B681B79002B0FD03B681C
:104DF8001B79012B0BD03B681B79022B07D03B6832
:104E08001B79032B03D06448BD21FCF7DBFC3B680E
:104E1800DB79002B0BD03B68DB79012B07D03B6893
:104E2800DB79022B03D05C48BE21FCF7CBFC0023C6
:104E38007B6197E07B69012202FA03F33B613B68DF
:104E48001A683B691340FB60FA683B699A4240F074
:104E580086807B681A687B695B00032101FA03F38B
:104E6800DB431A407B681A607B681A683B681B79C9
:104E780019467B695B0001FA03F31A437B681A60E1
:104E88003B681B79012B03D03B681B79022B4ED161
:104E98003B685B79002B0FD03B685B79012B0BD00B
:104EA8003B685B79022B07D03B685B79032B03D007
:104EB8003948D021FCF786FC7B689A687B695B00DF
:104EC800032101FA03F3DB431A407B689A607B688D
:104ED8009A683B685B7919467B695B0001FA03F3C2
:104EE8001A437B689A603B689B79002B07D03B6824
:104EF8009B79012B03D02848D721FCF763FC7B68FA
:104F08005A687B699BB2012101FA03F3DB431A401B
:104F18007B685A607B685A683B689B7919467B694D
:104F28009BB201FA03F39BB21A437B685A607B6811
:104F3800DA687B699BB25B00032101FA03F3DB4368
:104F48001A407B68DA607B68DA683B68DB79194667
:104F58007B695B0001FA03F31A437B68DA607B69BB
:104F680001337B617B690F2B7FF664AF1837BD4631
:104F780080BD00BF0000024000040240000802405B
:104F8800000C0240001002400014024000180240C9
:104F9800001C0240002002408C5C000880B584B0F0
:104FA80000AF786013460A467A807B700023FB6066
:104FB8000023BB607A68834B9A4224D07A68824B7C
:104FC8009A4220D07A68814B9A421CD07A68804BEA
:104FD8009A4218D07A687F4B9A4214D07A687E4BEE
:104FE8009A4210D07A687D4B9A420CD07A687C4BF2
:104FF8009A4208D07A687B4B9A4204D07A4840F2A9
:105008001721FCF7DFFB7B88002B31D07B88012B35
:105018002ED07B88022B2BD07B88032B28D07B8833
:10502800042B25D07B88052B22D07B88062B1FD00C
:105038007B88072B1CD07B88082B19D07B88092BF1
:1050480016D07B880A2B13D07B880B2B10D07B883B
:105058000C2B0DD07B880D2B0AD07B880E2B07D00C
:105068007B880F2B04D060484FF40671FCF7AAFB2D
:105078007B78002B6DD07B78092B6AD07B78002B4E
:1050880067D07B78002B64D07B78002B61D07B784D
:10509800002B5ED07B78012B5BD07B78012B58D01E
:1050A8007B78022B55D07B78022B52D07B78022B51
:1050B8004FD07B78032B4CD07B78042B49D07B785E
:1050C800042B46D07B78042B43D07B78052B40D02B
:1050D8007B78052B3DD07B78092B3AD07B78062B43
:1050E80037D07B78092B34D07B78072B31D07B786D
:1050F800072B2ED07B78072B2BD07B78082B28D03A
:105108007B78082B25D07B78082B22D07B78092B3D
:105118001FD07B78092B1CD07B780A2B19D07B7881
:105128000A2B16D07B780B2B13D07B780C2B10D046
:105138007B780C2B0DD07B780C2B0AD07B780D2B31
:1051480007D07B780F2B04D0274840F21921FCF7B1
:1051580039FB7A787B8803F007039B0002FA03F394
:10516800FB607B88DB089BB21A467B88DB089BB216
:1051780019467B68083153F821107B8803F0070330
:105188009B000F2000FA03F3DB4319407B680832C9
:1051980043F822107B88DB089BB21A467B680832EA
:1051A80053F82220FB681343BB607B88DB089BB263
:1051B8001A467B680832B96843F822101037BD4692
:1051C80080BD00BF00000240000402400008024009
:1051D800000C024000100240001402400018024077
:1051E800001C0240002002408C5C000880B582B0A0
:1051F80000AF78600B46FB707A68154B1340002BA4
:1052080002D17B68002B04D112484FF48861FCF767
:10521800D9FAFB78002B07D0FB78012B04D00D4876
:1052280040F24241FCF7CEFAFB78002B06D00A4B3D
:10523800094A116B7A680A431A6306E0064B064A64
:10524800116B7A68D2430A401A630837BD4680BD9D
:1052580000EE8B81DC5C00080038024080B582B02B
:1052680000AF78600B46FB707A68154B1340002B33
:1052780002D17B68002B04D1124840F2D541FCF7DB
:10528800A1FAFB78002B07D0FB78012B04D00D483E
:1052980040F2D641FCF796FAFB78002B06D00A4B71
:1052A800094A516C7A680A435A6406E0064B064A72
:1052B800516C7A68D2430A405A640837BD4680BDAB
:1052C800CCA0F8FFDC5C00080038024080B584B050
:1052D80000AF786039600023FB817A68704B9A428E
:1052E8000CD07A686F4B9A4208D07A686E4B9A4213
:1052F80004D06E484FF48371FCF764FA3B681B884E
:10530800002B13D03B681B88B3F5806F0ED03B6829
:105318001B88B3F5004F09D03B681B88B3F5404F95
:1053280004D0624840F20911FCF74CFA3B685B88EC
:10533800B3F5827F08D03B685B88002B04D05B48BC
:105348004FF48571FCF73EFA3B689B88B3F5006F14
:1053580008D03B689B88002B04D0544840F20B11BE
:10536800FCF730FA3B68DB88002B08D03B68DB8809
:10537800022B04D04D484FF48671FCF723FA3B68A2
:105388001B89002B08D03B681B89012B04D0474898
:1053980040F20D11FCF716FA3B685B89B3F5007F04
:1053A80008D03B685B89002B04D040484FF48771D4
:1053B800FCF708FA3B689B89002B20D03B689B8947
:1053C800082B1CD03B689B89102B18D03B689B8905
:1053D800182B14D03B689B89202B10D03B689B89E5
:1053E800282B0CD03B689B89302B08D03B689B89C5
:1053F800382B04D02D4840F20F11FCF7E3F93B6835
:10540800DB89002B08D03B68DB89802B04D0274838
:105418004FF48871FCF7D6F93B681B8A002B04D13E
:10542800224840F21111FCF7CDF97B681B88FB81FB
:10543800FB8903F44153FB813B681A883B685B880E
:1054480013439AB23B689B8813439AB23B68DB8844
:1054580013439AB23B681B8913439AB23B685B8932
:1054680013439AB23B689B8913439AB23B68DB8922
:1054780013439AB2FB891343FB817B68FA891A802C
:105488007B689B8B9BB223F400639AB27B689A83F8
:105498003B681A8A7B681A821037BD4680BD00BFF8
:1054A8000030014000380040003C00402C5D0008FE
:1054B80080B582B000AF78600B46FB707A68194BF4
:1054C8009A420CD07A68184B9A4208D07A68174BDF
:1054D8009A4204D0164840F20121FCF773F9FB7890
:1054E800002B07D0FB78012B04D0114840F2022191
:1054F800FCF768F9FB78002B08D07B681B889BB207
:1055080043F040039AB27B681A8007E07B681B88E7
:105518009BB223F040039AB27B681A800837BD46D5
:1055280080BD00BF0030014000380040003C004012
:105538002C5D000880B582B000AF786013460A463B
:105548007A807B707A68254B9A4214D07A68244B0B
:105558009A4210D07A68234B9A420CD07A68224B30
:105568009A4208D07B68B3F1402F04D01F4840F21C
:10557800D931FCF727F97B78002B07D07B78012BF2
:1055880004D01A4840F2DA31FCF71CF97A884FF651
:10559800FC731340002B02D17B88002B04D11348E5
:1055A80040F2DB31FCF70EF97B78002B08D07B68E2
:1055B8009B889AB27B8813439AB27B689A8009E0E9
:1055C8007B689B889AB27B88DB439BB213409AB274
:1055D8007B689A800837BD4680BD00BF0030014017
:1055E80000380040003C0040003400402C5D0008BA
:1055F80080B584B000AF78600B467B800023FB73D6
:105608007A68254B9A4214D07A68244B9A4210D073
:105618007A68234B9A420CD07A68224B9A4208D077
:105628007B68B3F1402F04D01F4840F27341FCF768
:10563800C9F87B88802B1DD07B88402B1AD07B88AB
:10564800202B17D07B88102B14D07B88082B11D0E7
:105658007B88042B0ED07B88022B0BD07B88012BF8
:1056680008D07B88B3F5807F04D00F4840F274419E
:10567800FCF7A8F87B681B899AB27B8813409BB219
:10568800002B02D00123FB7301E00023FB73FB7B9B
:1056980018461037BD4680BD003001400038004034
:1056A800003C0040003400402C5D000880B582B00A
:1056B80000AF78600B467B807A68144B9A4214D00E
:1056C8007A68134B9A4210D07A68124B9A420CD0DF
:1056D8007A68114B9A4208D07B68B3F1402F04D006
:1056E8000E4840F29B41FCF76DF87B88102B04D0E4
:1056F8000A4840F29C41FCF765F87B88DB439AB284
:105708007B681A810837BD4680BD00BF0030014064
:1057180000380040003C0040003400402C5D000888
:1057280090B585B000AF02460B46FA71BB710023F5
:10573800FB60FB79002B1BD0FB79012B18D0FB7980
:10574800022B15D0FB79032B12D0FB79042B0FD039
:10575800FB79052B0CD0FB79062B09D0FB79072B9D
:1057680006D0FB79082B03D034487C21FCF72AF8B3
:10577800BB79002B30D0BB79012B2DD0BB79022B04
:105788002AD0BB79032B27D0BB79042B24D0BB7933
:10579800052B21D0BB79062B1ED0BB79072B1BD03C
:1057A800BB79082B18D0BB79092B15D0BB790A2BEC
:1057B80012D0BB790B2B0FD0BB790C2B0CD0BB793B
:1057C8000D2B09D0BB790E2B06D0BB790F2B03D03C
:1057D8001A487D21FBF7F6FFBB7903F003039B0012
:1057E8000F2202FA03F3FB60154BBA799208D2B282
:1057F8001349B8798008C0B2023051F82000F9681E
:10580800C9430140023243F822100D4BBA7992087D
:10581800D2B20B49B8798008C0B2023051F82000E2
:10582800FC79B97901F00301890004FA01F1014317
:10583800023243F822101437BD4690BD7C5D000843
:105848000038014070B50F4E0F4D761BB61007D0CB
:10585800043D0024013455F8043F9847A642F9D185
:105868000A4E0B4D761B00F0C9FAB61008D0043D5D
:105878000024013455F8043F9847A642F9D170BD79
:1058880070BD00BF1C5E00081C5E0008245E000896
:105898001C5E0008032A70B428D940EA01039B075C
:1058A80013D005780C78A54224D1013A002305E0ED
:1058B80010F8015F11F8014FA5421BD1934203F183
:1058C8000103F5D1002070BC70470C4603462568DB
:1058D8001E68AE422146184604F1040403F104038D
:1058E80004D1043A032A18462146F0D8002AD8D110
:1058F8001046E8E7281B70BC704700BFF0B4840767
:1059080043D0541E002A3ED0CDB2034603E0621EA7
:10591800002C38D0144603F8015B9A07F7D1032C02
:105928002AD9CDB245EA05250F2C45EA054515D9F2
:10593800A4F110073F0903F1100606EB07161A46F3
:10594800156055609560D5601032B242F8D104F008
:105958000F040137032C03EB07130DD91E4622460B
:10596800043A032A46F8045BFAD8221F22F00302FD
:105978000432134404F003042CB1C9B21C4403F8E4
:10598800011BA342FBD1F0BC704714460346C6E78F
:1059980030B4002A4AD040EA010313F003032DD1A2
:1059A800032A2BD904680D68AC4227D1043A3DD0AC
:1059B800A4F1013525EA040414F0803F3CD10C46DB
:1059C80003460EE05B686468A3F10135A34225EA4B
:1059D800030513D1043A29D015F0803F29D1034695
:1059E8000C46032A00F1040001F10401EAD8551E0F
:1059F8002AB918792279801A30BC7047551E037865
:105A08000A7893421AD1DDB1B3B16C1C0C448B1CDB
:105A1800014604E0A3420CD001330028ECD011F871
:105A2800010F13F8012C9042F4D0E4E7104630BC83
:105A38007047002030BC70471846DDE71846DAE7A3
:105A48002846D9E7024B13B1024800F005B8704761
:105A5800000000006D5A0008014600200246034677
:105A680000F018B838B5094D094C641BA41018BFCC
:105A780005EB840505D0013C55F8043D9847002CFA
:105A8800F9D1BDE8384000F0BFB900BF245E000876
:105A9800285E0008F0B5274C2668D6F8484185B03E
:105AA8000746002C41D065681F2D1EDD224818B915
:105AB8004FF0FF3005B0F0BD4FF4C870039102926B
:105AC8000193AFF300800399029A019B04460028D2
